{
  "_format": "hh-sol-artifact-1",
  "contractName": "Bidder",
  "sourceName": "contracts/Bidder.sol",
  "abi": [
    {
      "inputs": [
        {
          "internalType": "uint256",
          "name": "_biddingTime",
          "type": "uint256"
        }
      ],
      "stateMutability": "payable",
      "type": "constructor"
    },
    {
      "anonymous": false,
      "inputs": [
        {
          "indexed": false,
          "internalType": "address",
          "name": "winner",
          "type": "address"
        },
        {
          "indexed": false,
          "internalType": "uint256",
          "name": "amount",
          "type": "uint256"
        }
      ],
      "name": "AuctionEnded",
      "type": "event"
    },
    {
      "anonymous": false,
      "inputs": [
        {
          "indexed": false,
          "internalType": "address",
          "name": "bidder",
          "type": "address"
        },
        {
          "indexed": false,
          "internalType": "uint256",
          "name": "amount",
          "type": "uint256"
        }
      ],
      "name": "BidPlaced",
      "type": "event"
    },
    {
      "inputs": [],
      "name": "biddingEndTime",
      "outputs": [
        {
          "internalType": "uint256",
          "name": "",
          "type": "uint256"
        }
      ],
      "stateMutability": "view",
      "type": "function"
    },
    {
      "inputs": [
        {
          "internalType": "address",
          "name": "",
          "type": "address"
        }
      ],
      "name": "bids",
      "outputs": [
        {
          "internalType": "uint256",
          "name": "",
          "type": "uint256"
        }
      ],
      "stateMutability": "view",
      "type": "function"
    },
    {
      "inputs": [],
      "name": "endAuction",
      "outputs": [],
      "stateMutability": "nonpayable",
      "type": "function"
    },
    {
      "inputs": [],
      "name": "highestBid",
      "outputs": [
        {
          "internalType": "uint256",
          "name": "",
          "type": "uint256"
        }
      ],
      "stateMutability": "view",
      "type": "function"
    },
    {
      "inputs": [],
      "name": "highestBidder",
      "outputs": [
        {
          "internalType": "address",
          "name": "",
          "type": "address"
        }
      ],
      "stateMutability": "view",
      "type": "function"
    },
    {
      "inputs": [],
      "name": "maximumBid",
      "outputs": [
        {
          "internalType": "uint256",
          "name": "",
          "type": "uint256"
        }
      ],
      "stateMutability": "view",
      "type": "function"
    },
    {
      "inputs": [],
      "name": "owner",
      "outputs": [
        {
          "internalType": "address",
          "name": "",
          "type": "address"
        }
      ],
      "stateMutability": "view",
      "type": "function"
    },
    {
      "inputs": [
        {
          "internalType": "uint256",
          "name": "bidAmt",
          "type": "uint256"
        }
      ],
      "name": "placeBid",
      "outputs": [],
      "stateMutability": "payable",
      "type": "function"
    },
    {
      "inputs": [],
      "name": "publishTender",
      "outputs": [],
      "stateMutability": "payable",
      "type": "function"
    },
    {
      "inputs": [],
      "name": "withdraw",
      "outputs": [],
      "stateMutability": "nonpayable",
      "type": "function"
    }
  ],
  "bytecode": "0x608060405260405162000f0838038062000f088339818101604052810190620000299190620000c4565b336000806101000a81548173ffffffffffffffffffffffffffffffffffffffff021916908373ffffffffffffffffffffffffffffffffffffffff160217905550804262000077919062000125565b6002819055505062000160565b600080fd5b6000819050919050565b6200009e8162000089565b8114620000aa57600080fd5b50565b600081519050620000be8162000093565b92915050565b600060208284031215620000dd57620000dc62000084565b5b6000620000ed84828501620000ad565b91505092915050565b7f4e487b7100000000000000000000000000000000000000000000000000000000600052601160045260246000fd5b6000620001328262000089565b91506200013f8362000089565b92508282019050808211156200015a5762000159620000f6565b5b92915050565b610d9880620001706000396000f3fe6080604052600436106100915760003560e01c806391f901571161005957806391f901571461016b5780639979ef4514610196578063d57bde79146101b2578063dd98c564146101dd578063fe67a54b146101e757610091565b80631022eccb146100965780633ccfd60b146100c157806348a818ad146100d857806362ea82db146101035780638da5cb5b14610140575b600080fd5b3480156100a257600080fd5b506100ab6101fe565b6040516100b891906108a3565b60405180910390f35b3480156100cd57600080fd5b506100d6610204565b005b3480156100e457600080fd5b506100ed610359565b6040516100fa91906108a3565b60405180910390f35b34801561010f57600080fd5b5061012a60048036038101906101259190610921565b61035f565b60405161013791906108a3565b60405180910390f35b34801561014c57600080fd5b50610155610377565b604051610162919061095d565b60405180910390f35b34801561017757600080fd5b5061018061039b565b60405161018d919061095d565b60405180910390f35b6101b060048036038101906101ab91906109a4565b6103c1565b005b3480156101be57600080fd5b506101c76105e1565b6040516101d491906108a3565b60405180910390f35b6101e56105e7565b005b3480156101f357600080fd5b506101fc61067e565b005b60025481565b6000600560003373ffffffffffffffffffffffffffffffffffffffff1673ffffffffffffffffffffffffffffffffffffffff1681526020019081526020016000205411610286576040517f08c379a000000000000000000000000000000000000000000000000000000000815260040161027d90610a2e565b60405180910390fd5b6000600560003373ffffffffffffffffffffffffffffffffffffffff1673ffffffffffffffffffffffffffffffffffffffff1681526020019081526020016000205490506000600560003373ffffffffffffffffffffffffffffffffffffffff1673ffffffffffffffffffffffffffffffffffffffff168152602001908152602001600020819055503373ffffffffffffffffffffffffffffffffffffffff166108fc829081150290604051600060405180830381858888f19350505050158015610355573d6000803e3d6000fd5b5050565b60015481565b60056020528060005260406000206000915090505481565b60008054906101000a900473ffffffffffffffffffffffffffffffffffffffff1681565b600360009054906101000a900473ffffffffffffffffffffffffffffffffffffffff1681565b600154811115610406576040517f08c379a00000000000000000000000000000000000000000000000000000000081526004016103fd90610a9a565b60405180910390fd5b600254421061044a576040517f08c379a000000000000000000000000000000000000000000000000000000000815260040161044190610b06565b60405180910390fd5b60008054906101000a900473ffffffffffffffffffffffffffffffffffffffff1673ffffffffffffffffffffffffffffffffffffffff163373ffffffffffffffffffffffffffffffffffffffff16036104d8576040517f08c379a00000000000000000000000000000000000000000000000000000000081526004016104cf90610b72565b60405180910390fd5b60045481111561052b5733600360006101000a81548173ffffffffffffffffffffffffffffffffffffffff021916908373ffffffffffffffffffffffffffffffffffffffff160217905550806004819055505b80600560003373ffffffffffffffffffffffffffffffffffffffff1673ffffffffffffffffffffffffffffffffffffffff168152602001908152602001600020600082825461057a9190610bc1565b925050819055507f3fabff0a9c3ecd6814702e247fa9733e5d0aa69e3a38590f92cb18f623a2254d600360009054906101000a900473ffffffffffffffffffffffffffffffffffffffff166004546040516105d6929190610bf5565b60405180910390a150565b60045481565b60008054906101000a900473ffffffffffffffffffffffffffffffffffffffff1673ffffffffffffffffffffffffffffffffffffffff163373ffffffffffffffffffffffffffffffffffffffff1614610675576040517f08c379a000000000000000000000000000000000000000000000000000000000815260040161066c90610c6a565b60405180910390fd5b34600181905550565b60008054906101000a900473ffffffffffffffffffffffffffffffffffffffff1673ffffffffffffffffffffffffffffffffffffffff163373ffffffffffffffffffffffffffffffffffffffff161461070c576040517f08c379a000000000000000000000000000000000000000000000000000000000815260040161070390610cd6565b60405180910390fd5b7fdaec4582d5d9595688c8c98545fdd1c696d41c6aeaeb636737e84ed2f5c00eda600360009054906101000a900473ffffffffffffffffffffffffffffffffffffffff16600454604051610761929190610bf5565b60405180910390a1600360009054906101000a900473ffffffffffffffffffffffffffffffffffffffff1673ffffffffffffffffffffffffffffffffffffffff166108fc6004549081150290604051600060405180830381858888f193505050501580156107d3573d6000803e3d6000fd5b506107dc6107de565b565b60004711610821576040517f08c379a000000000000000000000000000000000000000000000000000000000815260040161081890610d42565b60405180910390fd5b60008054906101000a900473ffffffffffffffffffffffffffffffffffffffff1673ffffffffffffffffffffffffffffffffffffffff166108fc479081150290604051600060405180830381858888f19350505050158015610887573d6000803e3d6000fd5b50565b6000819050919050565b61089d8161088a565b82525050565b60006020820190506108b86000830184610894565b92915050565b600080fd5b600073ffffffffffffffffffffffffffffffffffffffff82169050919050565b60006108ee826108c3565b9050919050565b6108fe816108e3565b811461090957600080fd5b50565b60008135905061091b816108f5565b92915050565b600060208284031215610937576109366108be565b5b60006109458482850161090c565b91505092915050565b610957816108e3565b82525050565b6000602082019050610972600083018461094e565b92915050565b6109818161088a565b811461098c57600080fd5b50565b60008135905061099e81610978565b92915050565b6000602082840312156109ba576109b96108be565b5b60006109c88482850161098f565b91505092915050565b600082825260208201905092915050565b7f4e6f2066756e647320746f207769746864726177000000000000000000000000600082015250565b6000610a186014836109d1565b9150610a23826109e2565b602082019050919050565b60006020820190508181036000830152610a4781610a0b565b9050919050565b7f42696420616d6f756e7420746f6f206869676800000000000000000000000000600082015250565b6000610a846013836109d1565b9150610a8f82610a4e565b602082019050919050565b60006020820190508181036000830152610ab381610a77565b9050919050565b7f42696464696e672068617320656e646564000000000000000000000000000000600082015250565b6000610af06011836109d1565b9150610afb82610aba565b602082019050919050565b60006020820190508181036000830152610b1f81610ae3565b9050919050565b7f4f776e65722063616e6e6f742062696400000000000000000000000000000000600082015250565b6000610b5c6010836109d1565b9150610b6782610b26565b602082019050919050565b60006020820190508181036000830152610b8b81610b4f565b9050919050565b7f4e487b7100000000000000000000000000000000000000000000000000000000600052601160045260246000fd5b6000610bcc8261088a565b9150610bd78361088a565b9250828201905080821115610bef57610bee610b92565b5b92915050565b6000604082019050610c0a600083018561094e565b610c176020830184610894565b9392505050565b7f4f776e6572206f6e6c792063616e20706c616365000000000000000000000000600082015250565b6000610c546014836109d1565b9150610c5f82610c1e565b602082019050919050565b60006020820190508181036000830152610c8381610c47565b9050919050565b7f4f6e6c79206f776e65722063616e20656e64207468652061756374696f6e0000600082015250565b6000610cc0601e836109d1565b9150610ccb82610c8a565b602082019050919050565b60006020820190508181036000830152610cef81610cb3565b9050919050565b7f436f6e747261637420686173206e6f2062616c616e63652e0000000000000000600082015250565b6000610d2c6018836109d1565b9150610d3782610cf6565b602082019050919050565b60006020820190508181036000830152610d5b81610d1f565b905091905056fea2646970667358221220af5032f18e82c4f6b8bac8eca0b508ae708da11bb12d59f1bdbe76f368b2535c64736f6c63430008110033",
  "linkReferences": {},
  "deployedLinkReferences": {}
}